8=FIX.4.1^A9=61^A35=A^A34=1^A49=EXEC^A52=20121105-23:24:06^A56=BANZAI^A98=0^A108=30^A10=003^A8=FIX.4.1^A9=103^A35=D^A34=4^A49=BANZAI^A52=20121105-23:24:55^A56=EXEC^A11=1352157895032^A21=1^A38=10000^A40=1^A54=1^A55=ORCL^A59=0^A10=047^A8=FIX.4.1^A9=153^A35=8^A34=4^A49=EXEC^A52=20121105-23:24:42^A56=BANZAI^A6=12.3^A11=1352157882577^A14=10000^A17=2^A20=0^A31=12.3^A32=10000^A37=2^A38=10000^A39=2^A54=1^A55=MSFT^A150=2^A151=0^A10=230^A